{
  "_format": "hh-sol-artifact-1",
  "contractName": "VotingNFT",
  "sourceName": "contracts/VotingNFT.sol",
  "abi": [
    {
      "inputs": [
        {
          "internalType": "string",
          "name": "name",
          "type": "string"
        },
        {
          "internalType": "string",
          "name": "symbol",
          "type": "string"
        },
        {
          "internalType": "uint256",
          "name": "supply",
          "type": "uint256"
        },
        {
          "internalType": "address",
          "name": "inputMaster",
          "type": "address"
        }
      ],
      "stateMutability": "nonpayable",
      "type": "constructor"
    },
    {
      "anonymous": false,
      "inputs": [
        {
          "indexed": true,
          "internalType": "address",
          "name": "owner",
          "type": "address"
        },
        {
          "indexed": true,
          "internalType": "address",
          "name": "approved",
          "type": "address"
        },
        {
          "indexed": true,
          "internalType": "uint256",
          "name": "tokenId",
          "type": "uint256"
        }
      ],
      "name": "Approval",
      "type": "event"
    },
    {
      "anonymous": false,
      "inputs": [
        {
          "indexed": true,
          "internalType": "address",
          "name": "owner",
          "type": "address"
        },
        {
          "indexed": true,
          "internalType": "address",
          "name": "operator",
          "type": "address"
        },
        {
          "indexed": false,
          "internalType": "bool",
          "name": "approved",
          "type": "bool"
        }
      ],
      "name": "ApprovalForAll",
      "type": "event"
    },
    {
      "anonymous": false,
      "inputs": [
        {
          "indexed": true,
          "internalType": "address",
          "name": "previousOwner",
          "type": "address"
        },
        {
          "indexed": true,
          "internalType": "address",
          "name": "newOwner",
          "type": "address"
        }
      ],
      "name": "OwnershipTransferred",
      "type": "event"
    },
    {
      "anonymous": false,
      "inputs": [
        {
          "indexed": true,
          "internalType": "address",
          "name": "from",
          "type": "address"
        },
        {
          "indexed": true,
          "internalType": "address",
          "name": "to",
          "type": "address"
        },
        {
          "indexed": true,
          "internalType": "uint256",
          "name": "tokenId",
          "type": "uint256"
        }
      ],
      "name": "Transfer",
      "type": "event"
    },
    {
      "inputs": [
        {
          "internalType": "address",
          "name": "to",
          "type": "address"
        },
        {
          "internalType": "uint256",
          "name": "tokenId",
          "type": "uint256"
        }
      ],
      "name": "approve",
      "outputs": [],
      "stateMutability": "nonpayable",
      "type": "function"
    },
    {
      "inputs": [
        {
          "internalType": "address",
          "name": "owner",
          "type": "address"
        }
      ],
      "name": "balanceOf",
      "outputs": [
        {
          "internalType": "uint256",
          "name": "",
          "type": "uint256"
        }
      ],
      "stateMutability": "view",
      "type": "function"
    },
    {
      "inputs": [
        {
          "internalType": "uint256",
          "name": "tokenId",
          "type": "uint256"
        }
      ],
      "name": "getApproved",
      "outputs": [
        {
          "internalType": "address",
          "name": "",
          "type": "address"
        }
      ],
      "stateMutability": "view",
      "type": "function"
    },
    {
      "inputs": [
        {
          "internalType": "bytes32",
          "name": "_messageHash",
          "type": "bytes32"
        }
      ],
      "name": "getEthSignedMessageHash",
      "outputs": [
        {
          "internalType": "bytes32",
          "name": "",
          "type": "bytes32"
        }
      ],
      "stateMutability": "pure",
      "type": "function"
    },
    {
      "inputs": [
        {
          "internalType": "address",
          "name": "owner",
          "type": "address"
        },
        {
          "internalType": "address",
          "name": "operator",
          "type": "address"
        }
      ],
      "name": "isApprovedForAll",
      "outputs": [
        {
          "internalType": "bool",
          "name": "",
          "type": "bool"
        }
      ],
      "stateMutability": "view",
      "type": "function"
    },
    {
      "inputs": [],
      "name": "masterVote",
      "outputs": [
        {
          "internalType": "address",
          "name": "",
          "type": "address"
        }
      ],
      "stateMutability": "view",
      "type": "function"
    },
    {
      "inputs": [],
      "name": "maxSuply",
      "outputs": [
        {
          "internalType": "uint256",
          "name": "",
          "type": "uint256"
        }
      ],
      "stateMutability": "view",
      "type": "function"
    },
    {
      "inputs": [],
      "name": "name",
      "outputs": [
        {
          "internalType": "string",
          "name": "",
          "type": "string"
        }
      ],
      "stateMutability": "view",
      "type": "function"
    },
    {
      "inputs": [],
      "name": "owner",
      "outputs": [
        {
          "internalType": "address",
          "name": "",
          "type": "address"
        }
      ],
      "stateMutability": "view",
      "type": "function"
    },
    {
      "inputs": [
        {
          "internalType": "uint256",
          "name": "tokenId",
          "type": "uint256"
        }
      ],
      "name": "ownerOf",
      "outputs": [
        {
          "internalType": "address",
          "name": "",
          "type": "address"
        }
      ],
      "stateMutability": "view",
      "type": "function"
    },
    {
      "inputs": [
        {
          "internalType": "bytes32",
          "name": "signedMessage",
          "type": "bytes32"
        }
      ],
      "name": "register",
      "outputs": [],
      "stateMutability": "payable",
      "type": "function"
    },
    {
      "inputs": [],
      "name": "renounceOwnership",
      "outputs": [],
      "stateMutability": "nonpayable",
      "type": "function"
    },
    {
      "inputs": [
        {
          "internalType": "address",
          "name": "from",
          "type": "address"
        },
        {
          "internalType": "address",
          "name": "to",
          "type": "address"
        },
        {
          "internalType": "uint256",
          "name": "tokenId",
          "type": "uint256"
        }
      ],
      "name": "safeTransferFrom",
      "outputs": [],
      "stateMutability": "nonpayable",
      "type": "function"
    },
    {
      "inputs": [
        {
          "internalType": "address",
          "name": "from",
          "type": "address"
        },
        {
          "internalType": "address",
          "name": "to",
          "type": "address"
        },
        {
          "internalType": "uint256",
          "name": "tokenId",
          "type": "uint256"
        },
        {
          "internalType": "bytes",
          "name": "_data",
          "type": "bytes"
        }
      ],
      "name": "safeTransferFrom",
      "outputs": [],
      "stateMutability": "nonpayable",
      "type": "function"
    },
    {
      "inputs": [
        {
          "internalType": "address",
          "name": "operator",
          "type": "address"
        },
        {
          "internalType": "bool",
          "name": "approved",
          "type": "bool"
        }
      ],
      "name": "setApprovalForAll",
      "outputs": [],
      "stateMutability": "nonpayable",
      "type": "function"
    },
    {
      "inputs": [
        {
          "internalType": "bytes32",
          "name": "sig",
          "type": "bytes32"
        }
      ],
      "name": "splitSignature",
      "outputs": [
        {
          "internalType": "bytes32",
          "name": "r",
          "type": "bytes32"
        },
        {
          "internalType": "bytes32",
          "name": "s",
          "type": "bytes32"
        },
        {
          "internalType": "uint8",
          "name": "v",
          "type": "uint8"
        }
      ],
      "stateMutability": "pure",
      "type": "function"
    },
    {
      "inputs": [
        {
          "internalType": "bytes4",
          "name": "interfaceId",
          "type": "bytes4"
        }
      ],
      "name": "supportsInterface",
      "outputs": [
        {
          "internalType": "bool",
          "name": "",
          "type": "bool"
        }
      ],
      "stateMutability": "view",
      "type": "function"
    },
    {
      "inputs": [],
      "name": "symbol",
      "outputs": [
        {
          "internalType": "string",
          "name": "",
          "type": "string"
        }
      ],
      "stateMutability": "view",
      "type": "function"
    },
    {
      "inputs": [
        {
          "internalType": "uint256",
          "name": "index",
          "type": "uint256"
        }
      ],
      "name": "tokenByIndex",
      "outputs": [
        {
          "internalType": "uint256",
          "name": "",
          "type": "uint256"
        }
      ],
      "stateMutability": "view",
      "type": "function"
    },
    {
      "inputs": [
        {
          "internalType": "address",
          "name": "owner",
          "type": "address"
        },
        {
          "internalType": "uint256",
          "name": "index",
          "type": "uint256"
        }
      ],
      "name": "tokenOfOwnerByIndex",
      "outputs": [
        {
          "internalType": "uint256",
          "name": "",
          "type": "uint256"
        }
      ],
      "stateMutability": "view",
      "type": "function"
    },
    {
      "inputs": [
        {
          "internalType": "uint256",
          "name": "tokenId",
          "type": "uint256"
        }
      ],
      "name": "tokenURI",
      "outputs": [
        {
          "internalType": "string",
          "name": "",
          "type": "string"
        }
      ],
      "stateMutability": "view",
      "type": "function"
    },
    {
      "inputs": [],
      "name": "totalSupply",
      "outputs": [
        {
          "internalType": "uint256",
          "name": "",
          "type": "uint256"
        }
      ],
      "stateMutability": "view",
      "type": "function"
    },
    {
      "inputs": [
        {
          "internalType": "address",
          "name": "from",
          "type": "address"
        },
        {
          "internalType": "address",
          "name": "to",
          "type": "address"
        },
        {
          "internalType": "uint256",
          "name": "tokenId",
          "type": "uint256"
        }
      ],
      "name": "transferFrom",
      "outputs": [],
      "stateMutability": "nonpayable",
      "type": "function"
    },
    {
      "inputs": [
        {
          "internalType": "address",
          "name": "newOwner",
          "type": "address"
        }
      ],
      "name": "transferOwnership",
      "outputs": [],
      "stateMutability": "nonpayable",
      "type": "function"
    }
  ],
  "bytecode": "0x60806040523480156200001157600080fd5b50604051620048a5380380620048a58339818101604052810190620000379190620002fd565b8383816000908051906020019062000051929190620001ad565b5080600190805190602001906200006a929190620001ad565b5050506200008d62000081620000df60201b60201c565b620000e760201b60201c565b81600c8190555080600d60006101000a81548173ffffffffffffffffffffffffffffffffffffffff021916908373ffffffffffffffffffffffffffffffffffffffff160217905550505050506200057d565b600033905090565b6000600b60009054906101000a900473ffffffffffffffffffffffffffffffffffffffff16905081600b60006101000a81548173ffffffffffffffffffffffffffffffffffffffff021916908373ffffffffffffffffffffffffffffffffffffffff1602179055508173ffffffffffffffffffffffffffffffffffffffff168173ffffffffffffffffffffffffffffffffffffffff167f8be0079c531659141344cd1fd0a4f28419497f9722a3daafe3b4186f6b6457e060405160405180910390a35050565b828054620001bb906200046e565b90600052602060002090601f016020900481019282620001df57600085556200022b565b82601f10620001fa57805160ff19168380011785556200022b565b828001600101855582156200022b579182015b828111156200022a5782518255916020019190600101906200020d565b5b5090506200023a91906200023e565b5090565b5b80821115620002595760008160009055506001016200023f565b5090565b6000620002746200026e84620003c4565b6200039b565b9050828152602081018484840111156200028d57600080fd5b6200029a84828562000438565b509392505050565b600081519050620002b38162000549565b92915050565b600082601f830112620002cb57600080fd5b8151620002dd8482602086016200025d565b91505092915050565b600081519050620002f78162000563565b92915050565b600080600080608085870312156200031457600080fd5b600085015167ffffffffffffffff8111156200032f57600080fd5b6200033d87828801620002b9565b945050602085015167ffffffffffffffff8111156200035b57600080fd5b6200036987828801620002b9565b93505060406200037c87828801620002e6565b92505060606200038f87828801620002a2565b91505092959194509250565b6000620003a7620003ba565b9050620003b58282620004a4565b919050565b6000604051905090565b600067ffffffffffffffff821115620003e257620003e162000509565b5b620003ed8262000538565b9050602081019050919050565b600062000407826200040e565b9050919050565b600073ffffffffffffffffffffffffffffffffffffffff82169050919050565b6000819050919050565b60005b83811015620004585780820151818401526020810190506200043b565b8381111562000468576000848401525b50505050565b600060028204905060018216806200048757607f821691505b602082108114156200049e576200049d620004da565b5b50919050565b620004af8262000538565b810181811067ffffffffffffffff82111715620004d157620004d062000509565b5b80604052505050565b7f4e487b7100000000000000000000000000000000000000000000000000000000600052602260045260246000fd5b7f4e487b7100000000000000000000000000000000000000000000000000000000600052604160045260246000fd5b6000601f19601f8301169050919050565b6200055481620003fa565b81146200056057600080fd5b50565b6200056e816200042e565b81146200057a57600080fd5b50565b614318806200058d6000396000f3fe60806040526004361061014b5760003560e01c806371e59c78116100b6578063b88d4fde1161006f578063b88d4fde146104ba578063c87b56dd146104e3578063e1fa8e8414610520578063e985e9c51461053c578063f2fde38b14610579578063fa540801146105a25761014b565b806371e59c78146103a65780637942e91c146103d15780638da5cb5b14610410578063908ea4711461043b57806395d89b4114610466578063a22cb465146104915761014b565b80632f745c59116101085780632f745c591461027257806342842e0e146102af5780634f6ccce7146102d85780636352211e1461031557806370a0823114610352578063715018a61461038f5761014b565b806301ffc9a71461015057806306fdde031461018d578063081812fc146101b8578063095ea7b3146101f557806318160ddd1461021e57806323b872dd14610249575b600080fd5b34801561015c57600080fd5b5061017760048036038101906101729190612d44565b6105df565b6040516101849190613349565b60405180910390f35b34801561019957600080fd5b506101a26105f1565b6040516101af91906133fb565b60405180910390f35b3480156101c457600080fd5b506101df60048036038101906101da9190612d96565b610683565b6040516101ec91906132e2565b60405180910390f35b34801561020157600080fd5b5061021c60048036038101906102179190612cdf565b610708565b005b34801561022a57600080fd5b50610233610820565b604051610240919061377d565b60405180910390f35b34801561025557600080fd5b50610270600480360381019061026b9190612bd9565b61082d565b005b34801561027e57600080fd5b5061029960048036038101906102949190612cdf565b61088d565b6040516102a6919061377d565b60405180910390f35b3480156102bb57600080fd5b506102d660048036038101906102d19190612bd9565b610932565b005b3480156102e457600080fd5b506102ff60048036038101906102fa9190612d96565b610952565b60405161030c919061377d565b60405180910390f35b34801561032157600080fd5b5061033c60048036038101906103379190612d96565b6109e9565b60405161034991906132e2565b60405180910390f35b34801561035e57600080fd5b5061037960048036038101906103749190612b74565b610a9b565b604051610386919061377d565b60405180910390f35b34801561039b57600080fd5b506103a4610b53565b005b3480156103b257600080fd5b506103bb610bdb565b6040516103c891906132e2565b60405180910390f35b3480156103dd57600080fd5b506103f860048036038101906103f39190612d1b565b610c01565b6040516104079392919061337f565b60405180910390f35b34801561041c57600080fd5b50610425610c6c565b60405161043291906132e2565b60405180910390f35b34801561044757600080fd5b50610450610c96565b60405161045d919061377d565b60405180910390f35b34801561047257600080fd5b5061047b610c9c565b60405161048891906133fb565b60405180910390f35b34801561049d57600080fd5b506104b860048036038101906104b39190612ca3565b610d2e565b005b3480156104c657600080fd5b506104e160048036038101906104dc9190612c28565b610eaf565b005b3480156104ef57600080fd5b5061050a60048036038101906105059190612d96565b610f11565b60405161051791906133fb565b60405180910390f35b61053a60048036038101906105359190612d1b565b610f23565b005b34801561054857600080fd5b50610563600480360381019061055e9190612b9d565b611043565b6040516105709190613349565b60405180910390f35b34801561058557600080fd5b506105a0600480360381019061059b9190612b74565b6110d7565b005b3480156105ae57600080fd5b506105c960048036038101906105c49190612d1b565b6111cf565b6040516105d69190613364565b60405180910390f35b60006105ea826111ff565b9050919050565b606060008054610600906139b9565b80601f016020809104026020016040519081016040528092919081815260200182805461062c906139b9565b80156106795780601f1061064e57610100808354040283529160200191610679565b820191906000526020600020905b81548152906001019060200180831161065c57829003601f168201915b5050505050905090565b600061068e82611279565b6106cd576040517f08c379a00000000000000000000000000000000000000000000000000000000081526004016106c49061365d565b60405180910390fd5b6004600083815260200190815260200160002060009054906101000a900473ffffffffffffffffffffffffffffffffffffffff169050919050565b6000610713826109e9565b90508073ffffffffffffffffffffffffffffffffffffffff168373ffffffffffffffffffffffffffffffffffffffff161415610784576040517f08c379a000000000000000000000000000000000000000000000000000000000815260040161077b906136dd565b60405180910390fd5b8073ffffffffffffffffffffffffffffffffffffffff166107a36112e5565b73ffffffffffffffffffffffffffffffffffffffff1614806107d257506107d1816107cc6112e5565b611043565b5b610811576040517f08c379a00000000000000000000000000000000000000000000000000000000081526004016108089061359d565b60405180910390fd5b61081b83836112ed565b505050565b6000600880549050905090565b61083e6108386112e5565b826113a6565b61087d576040517f08c379a0000000000000000000000000000000000000000000000000000000008152600401610874906136fd565b60405180910390fd5b610888838383611484565b505050565b600061089883610a9b565b82106108d9576040517f08c379a00000000000000000000000000000000000000000000000000000000081526004016108d09061347d565b60405180910390fd5b600660008473ffffffffffffffffffffffffffffffffffffffff1673ffffffffffffffffffffffffffffffffffffffff168152602001908152602001600020600083815260200190815260200160002054905092915050565b61094d83838360405180602001604052806000815250610eaf565b505050565b600061095c610820565b821061099d576040517f08c379a00000000000000000000000000000000000000000000000000000000081526004016109949061371d565b60405180910390fd5b600882815481106109d7577f4e487b7100000000000000000000000000000000000000000000000000000000600052603260045260246000fd5b90600052602060002001549050919050565b6000806002600084815260200190815260200160002060009054906101000a900473ffffffffffffffffffffffffffffffffffffffff169050600073ffffffffffffffffffffffffffffffffffffffff168173ffffffffffffffffffffffffffffffffffffffff161415610a92576040517f08c379a0000000000000000000000000000000000000000000000000000000008152600401610a89906135dd565b60405180910390fd5b80915050919050565b60008073ffffffffffffffffffffffffffffffffffffffff168273ffffffffffffffffffffffffffffffffffffffff161415610b0c576040517f08c379a0000000000000000000000000000000000000000000000000000000008152600401610b03906135bd565b60405180910390fd5b600360008373ffffffffffffffffffffffffffffffffffffffff1673ffffffffffffffffffffffffffffffffffffffff168152602001908152602001600020549050919050565b610b5b6112e5565b73ffffffffffffffffffffffffffffffffffffffff16610b79610c6c565b73ffffffffffffffffffffffffffffffffffffffff1614610bcf576040517f08c379a0000000000000000000000000000000000000000000000000000000008152600401610bc69061367d565b60405180910390fd5b610bd960006116e0565b565b600d60009054906101000a900473ffffffffffffffffffffffffffffffffffffffff1681565b60008060006041602060ff1614610c4d576040517f08c379a0000000000000000000000000000000000000000000000000000000008152600401610c449061375d565b60405180910390fd5b6020840151925060408401519150606084015160001a90509193909250565b6000600b60009054906101000a900473ffffffffffffffffffffffffffffffffffffffff16905090565b600c5481565b606060018054610cab906139b9565b80601f0160208091040260200160405190810160405280929190818152602001828054610cd7906139b9565b8015610d245780601f10610cf957610100808354040283529160200191610d24565b820191906000526020600020905b815481529060010190602001808311610d0757829003601f168201915b5050505050905090565b610d366112e5565b73ffffffffffffffffffffffffffffffffffffffff168273ffffffffffffffffffffffffffffffffffffffff161415610da4576040517f08c379a0000000000000000000000000000000000000000000000000000000008152600401610d9b9061351d565b60405180910390fd5b8060056000610db16112e5565b73ffffffffffffffffffffffffffffffffffffffff1673ffffffffffffffffffffffffffffffffffffffff16815260200190815260200160002060008473ffffffffffffffffffffffffffffffffffffffff1673ffffffffffffffffffffffffffffffffffffffff16815260200190815260200160002060006101000a81548160ff0219169083151502179055508173ffffffffffffffffffffffffffffffffffffffff16610e5e6112e5565b73ffffffffffffffffffffffffffffffffffffffff167f17307eab39ab6107e8899845ad3d59bd9653f200f220920489ca2b5937696c3183604051610ea39190613349565b60405180910390a35050565b610ec0610eba6112e5565b836113a6565b610eff576040517f08c379a0000000000000000000000000000000000000000000000000000000008152600401610ef6906136fd565b60405180910390fd5b610f0b848484846117a6565b50505050565b6060610f1c82611802565b9050919050565b6000610f2d610820565b9050600c548110610f73576040517f08c379a0000000000000000000000000000000000000000000000000000000008152600401610f6a9061373d565b60405180910390fd5b610f9f600d60009054906101000a900473ffffffffffffffffffffffffffffffffffffffff1683611954565b610fde576040517f08c379a0000000000000000000000000000000000000000000000000000000008152600401610fd59061357d565b60405180910390fd5b6000610fe933610a9b565b14611029576040517f08c379a00000000000000000000000000000000000000000000000000000000081526004016110209061343d565b60405180910390fd5b61103f3360018361103a9190613831565b6119bc565b5050565b6000600560008473ffffffffffffffffffffffffffffffffffffffff1673ffffffffffffffffffffffffffffffffffffffff16815260200190815260200160002060008373ffffffffffffffffffffffffffffffffffffffff1673ffffffffffffffffffffffffffffffffffffffff16815260200190815260200160002060009054906101000a900460ff16905092915050565b6110df6112e5565b73ffffffffffffffffffffffffffffffffffffffff166110fd610c6c565b73ffffffffffffffffffffffffffffffffffffffff1614611153576040517f08c379a000000000000000000000000000000000000000000000000000000000815260040161114a9061367d565b60405180910390fd5b600073ffffffffffffffffffffffffffffffffffffffff168173ffffffffffffffffffffffffffffffffffffffff1614156111c3576040517f08c379a00000000000000000000000000000000000000000000000000000000081526004016111ba906134bd565b60405180910390fd5b6111cc816116e0565b50565b6000816040516020016111e291906132bc565b604051602081830303815290604052805190602001209050919050565b60007f780e9d63000000000000000000000000000000000000000000000000000000007bffffffffffffffffffffffffffffffffffffffffffffffffffffffff1916827bffffffffffffffffffffffffffffffffffffffffffffffffffffffff191614806112725750611271826119da565b5b9050919050565b60008073ffffffffffffffffffffffffffffffffffffffff166002600084815260200190815260200160002060009054906101000a900473ffffffffffffffffffffffffffffffffffffffff1673ffffffffffffffffffffffffffffffffffffffff1614159050919050565b600033905090565b816004600083815260200190815260200160002060006101000a81548173ffffffffffffffffffffffffffffffffffffffff021916908373ffffffffffffffffffffffffffffffffffffffff160217905550808273ffffffffffffffffffffffffffffffffffffffff16611360836109e9565b73ffffffffffffffffffffffffffffffffffffffff167f8c5be1e5ebec7d5bd14f71427d1e84f3dd0314c0f7b2291e5b200ac8c7c3b92560405160405180910390a45050565b60006113b182611279565b6113f0576040517f08c379a00000000000000000000000000000000000000000000000000000000081526004016113e79061355d565b60405180910390fd5b60006113fb836109e9565b90508073ffffffffffffffffffffffffffffffffffffffff168473ffffffffffffffffffffffffffffffffffffffff16148061146a57508373ffffffffffffffffffffffffffffffffffffffff1661145284610683565b73ffffffffffffffffffffffffffffffffffffffff16145b8061147b575061147a8185611043565b5b91505092915050565b8273ffffffffffffffffffffffffffffffffffffffff166114a4826109e9565b73ffffffffffffffffffffffffffffffffffffffff16146114fa576040517f08c379a00000000000000000000000000000000000000000000000000000000081526004016114f19061369d565b60405180910390fd5b600073ffffffffffffffffffffffffffffffffffffffff168273ffffffffffffffffffffffffffffffffffffffff16141561156a576040517f08c379a0000000000000000000000000000000000000000000000000000000008152600401611561906134fd565b60405180910390fd5b611575838383611abc565b6115806000826112ed565b6001600360008573ffffffffffffffffffffffffffffffffffffffff1673ffffffffffffffffffffffffffffffffffffffff16815260200190815260200160002060008282546115d091906138b8565b925050819055506001600360008473ffffffffffffffffffffffffffffffffffffffff1673ffffffffffffffffffffffffffffffffffffffff16815260200190815260200160002060008282546116279190613831565b92505081905550816002600083815260200190815260200160002060006101000a81548173ffffffffffffffffffffffffffffffffffffffff021916908373ffffffffffffffffffffffffffffffffffffffff160217905550808273ffffffffffffffffffffffffffffffffffffffff168473ffffffffffffffffffffffffffffffffffffffff167fddf252ad1be2c89b69c2b068fc378daa952ba7f163c4a11628f55a4df523b3ef60405160405180910390a4505050565b6000600b60009054906101000a900473ffffffffffffffffffffffffffffffffffffffff16905081600b60006101000a81548173ffffffffffffffffffffffffffffffffffffffff021916908373ffffffffffffffffffffffffffffffffffffffff1602179055508173ffffffffffffffffffffffffffffffffffffffff168173ffffffffffffffffffffffffffffffffffffffff167f8be0079c531659141344cd1fd0a4f28419497f9722a3daafe3b4186f6b6457e060405160405180910390a35050565b6117b1848484611484565b6117bd84848484611acc565b6117fc576040517f08c379a00000000000000000000000000000000000000000000000000000000081526004016117f39061349d565b60405180910390fd5b50505050565b606061180d82611279565b61184c576040517f08c379a00000000000000000000000000000000000000000000000000000000081526004016118439061363d565b60405180910390fd5b6000600a6000848152602001908152602001600020805461186c906139b9565b80601f0160208091040260200160405190810160405280929190818152602001828054611898906139b9565b80156118e55780601f106118ba576101008083540402835291602001916118e5565b820191906000526020600020905b8154815290600101906020018083116118c857829003601f168201915b5050505050905060006118f6611c63565b905060008151141561190c57819250505061194f565b600082511115611941578082604051602001611929929190613298565b6040516020818303038152906040529250505061194f565b61194a84611c7a565b925050505b919050565b60008060008061196385610c01565b9250925092506000611974866111cf565b90508673ffffffffffffffffffffffffffffffffffffffff1661199982848787611d21565b73ffffffffffffffffffffffffffffffffffffffff161494505050505092915050565b6119d6828260405180602001604052806000815250611d4c565b5050565b60007f80ac58cd000000000000000000000000000000000000000000000000000000007bffffffffffffffffffffffffffffffffffffffffffffffffffffffff1916827bffffffffffffffffffffffffffffffffffffffffffffffffffffffff19161480611aa557507f5b5e139f000000000000000000000000000000000000000000000000000000007bffffffffffffffffffffffffffffffffffffffffffffffffffffffff1916827bffffffffffffffffffffffffffffffffffffffffffffffffffffffff1916145b80611ab55750611ab482611da7565b5b9050919050565b611ac7838383611e11565b505050565b6000611aed8473ffffffffffffffffffffffffffffffffffffffff16611f25565b15611c56578373ffffffffffffffffffffffffffffffffffffffff1663150b7a02611b166112e5565b8786866040518563ffffffff1660e01b8152600401611b3894939291906132fd565b602060405180830381600087803b158015611b5257600080fd5b505af1925050508015611b8357506040513d601f19601f82011682018060405250810190611b809190612d6d565b60015b611c06573d8060008114611bb3576040519150601f19603f3d011682016040523d82523d6000602084013e611bb8565b606091505b50600081511415611bfe576040517f08c379a0000000000000000000000000000000000000000000000000000000008152600401611bf59061349d565b60405180910390fd5b805181602001fd5b63150b7a0260e01b7bffffffffffffffffffffffffffffffffffffffffffffffffffffffff1916817bffffffffffffffffffffffffffffffffffffffffffffffffffffffff191614915050611c5b565b600190505b949350505050565b606060405180602001604052806000815250905090565b6060611c8582611279565b611cc4576040517f08c379a0000000000000000000000000000000000000000000000000000000008152600401611cbb906136bd565b60405180910390fd5b6000611cce611c63565b90506000815111611cee5760405180602001604052806000815250611d19565b80611cf884611f38565b604051602001611d09929190613298565b6040516020818303038152906040525b915050919050565b6000806000611d32878787876120e5565b91509150611d3f816121f2565b8192505050949350505050565b611d568383612543565b611d636000848484611acc565b611da2576040517f08c379a0000000000000000000000000000000000000000000000000000000008152600401611d999061349d565b60405180910390fd5b505050565b60007f01ffc9a7000000000000000000000000000000000000000000000000000000007bffffffffffffffffffffffffffffffffffffffffffffffffffffffff1916827bffffffffffffffffffffffffffffffffffffffffffffffffffffffff1916149050919050565b611e1c838383612711565b600073ffffffffffffffffffffffffffffffffffffffff168373ffffffffffffffffffffffffffffffffffffffff161415611e5f57611e5a81612716565b611e9e565b8173ffffffffffffffffffffffffffffffffffffffff168373ffffffffffffffffffffffffffffffffffffffff1614611e9d57611e9c838261275f565b5b5b600073ffffffffffffffffffffffffffffffffffffffff168273ffffffffffffffffffffffffffffffffffffffff161415611ee157611edc816128cc565b611f20565b8273ffffffffffffffffffffffffffffffffffffffff168273ffffffffffffffffffffffffffffffffffffffff1614611f1f57611f1e8282612a0f565b5b5b505050565b600080823b905060008111915050919050565b60606000821415611f80576040518060400160405280600181526020017f300000000000000000000000000000000000000000000000000000000000000081525090506120e0565b600082905060005b60008214611fb2578080611f9b90613a1c565b915050600a82611fab9190613887565b9150611f88565b60008167ffffffffffffffff811115611ff4577f4e487b7100000000000000000000000000000000000000000000000000000000600052604160045260246000fd5b6040519080825280601f01601f1916602001820160405280156120265781602001600182028036833780820191505090505b5090505b600085146120d95760018261203f91906138b8565b9150600a8561204e9190613a6f565b603061205a9190613831565b60f81b818381518110612096577f4e487b7100000000000000000000000000000000000000000000000000000000600052603260045260246000fd5b60200101907effffffffffffffffffffffffffffffffffffffffffffffffffffffffffffff1916908160001a905350600a856120d29190613887565b945061202a565b8093505050505b919050565b6000807f7fffffffffffffffffffffffffffffff5d576e7357a4501ddfe92f46681b20a08360001c11156121205760006003915091506121e9565b601b8560ff16141580156121385750601c8560ff1614155b1561214a5760006004915091506121e9565b60006001878787876040516000815260200160405260405161216f94939291906133b6565b6020604051602081039080840390855afa158015612191573d6000803e3d6000fd5b505050602060405103519050600073ffffffffffffffffffffffffffffffffffffffff168173ffffffffffffffffffffffffffffffffffffffff1614156121e0576000600192509250506121e9565b80600092509250505b94509492505050565b6000600481111561222c577f4e487b7100000000000000000000000000000000000000000000000000000000600052602160045260246000fd5b816004811115612265577f4e487b7100000000000000000000000000000000000000000000000000000000600052602160045260246000fd5b141561227057612540565b600160048111156122aa577f4e487b7100000000000000000000000000000000000000000000000000000000600052602160045260246000fd5b8160048111156122e3577f4e487b7100000000000000000000000000000000000000000000000000000000600052602160045260246000fd5b1415612324576040517f08c379a000000000000000000000000000000000000000000000000000000000815260040161231b9061341d565b60405180910390fd5b6002600481111561235e577f4e487b7100000000000000000000000000000000000000000000000000000000600052602160045260246000fd5b816004811115612397577f4e487b7100000000000000000000000000000000000000000000000000000000600052602160045260246000fd5b14156123d8576040517f08c379a00000000000000000000000000000000000000000000000000000000081526004016123cf9061345d565b60405180910390fd5b60036004811115612412577f4e487b7100000000000000000000000000000000000000000000000000000000600052602160045260246000fd5b81600481111561244b577f4e487b7100000000000000000000000000000000000000000000000000000000600052602160045260246000fd5b141561248c576040517f08c379a00000000000000000000000000000000000000000000000000000000081526004016124839061353d565b60405180910390fd5b6004808111156124c5577f4e487b7100000000000000000000000000000000000000000000000000000000600052602160045260246000fd5b8160048111156124fe577f4e487b7100000000000000000000000000000000000000000000000000000000600052602160045260246000fd5b141561253f576040517f08c379a0000000000000000000000000000000000000000000000000000000008152600401612536906135fd565b60405180910390fd5b5b50565b600073ffffffffffffffffffffffffffffffffffffffff168273ffffffffffffffffffffffffffffffffffffffff1614156125b3576040517f08c379a00000000000000000000000000000000000000000000000000000000081526004016125aa9061361d565b60405180910390fd5b6125bc81611279565b156125fc576040517f08c379a00000000000000000000000000000000000000000000000000000000081526004016125f3906134dd565b60405180910390fd5b61260860008383611abc565b6001600360008473ffffffffffffffffffffffffffffffffffffffff1673ffffffffffffffffffffffffffffffffffffffff16815260200190815260200160002060008282546126589190613831565b92505081905550816002600083815260200190815260200160002060006101000a81548173ffffffffffffffffffffffffffffffffffffffff021916908373ffffffffffffffffffffffffffffffffffffffff160217905550808273ffffffffffffffffffffffffffffffffffffffff16600073ffffffffffffffffffffffffffffffffffffffff167fddf252ad1be2c89b69c2b068fc378daa952ba7f163c4a11628f55a4df523b3ef60405160405180910390a45050565b505050565b6008805490506009600083815260200190815260200160002081905550600881908060018154018082558091505060019003906000526020600020016000909190919091505550565b6000600161276c84610a9b565b61277691906138b8565b905060006007600084815260200190815260200160002054905081811461285b576000600660008673ffffffffffffffffffffffffffffffffffffffff1673ffffffffffffffffffffffffffffffffffffffff168152602001908152602001600020600084815260200190815260200160002054905080600660008773ffffffffffffffffffffffffffffffffffffffff1673ffffffffffffffffffffffffffffffffffffffff168152602001908152602001600020600084815260200190815260200160002081905550816007600083815260200190815260200160002081905550505b6007600084815260200190815260200160002060009055600660008573ffffffffffffffffffffffffffffffffffffffff1673ffffffffffffffffffffffffffffffffffffffff16815260200190815260200160002060008381526020019081526020016000206000905550505050565b600060016008805490506128e091906138b8565b9050600060096000848152602001908152602001600020549050600060088381548110612936577f4e487b7100000000000000000000000000000000000000000000000000000000600052603260045260246000fd5b90600052602060002001549050806008838154811061297e577f4e487b7100000000000000000000000000000000000000000000000000000000600052603260045260246000fd5b9060005260206000200181905550816009600083815260200190815260200160002081905550600960008581526020019081526020016000206000905560088054806129f3577f4e487b7100000000000000000000000000000000000000000000000000000000600052603160045260246000fd5b6001900381819060005260206000200160009055905550505050565b6000612a1a83610a9b565b905081600660008573ffffffffffffffffffffffffffffffffffffffff1673ffffffffffffffffffffffffffffffffffffffff168152602001908152602001600020600083815260200190815260200160002081905550806007600084815260200190815260200160002081905550505050565b6000612aa1612a9c846137bd565b613798565b905082815260208101848484011115612ab957600080fd5b612ac4848285613977565b509392505050565b600081359050612adb8161426f565b92915050565b600081359050612af081614286565b92915050565b600081359050612b058161429d565b92915050565b600081359050612b1a816142b4565b92915050565b600081519050612b2f816142b4565b92915050565b600082601f830112612b4657600080fd5b8135612b56848260208601612a8e565b91505092915050565b600081359050612b6e816142cb565b92915050565b600060208284031215612b8657600080fd5b6000612b9484828501612acc565b91505092915050565b60008060408385031215612bb057600080fd5b6000612bbe85828601612acc565b9250506020612bcf85828601612acc565b9150509250929050565b600080600060608486031215612bee57600080fd5b6000612bfc86828701612acc565b9350506020612c0d86828701612acc565b9250506040612c1e86828701612b5f565b9150509250925092565b60008060008060808587031215612c3e57600080fd5b6000612c4c87828801612acc565b9450506020612c5d87828801612acc565b9350506040612c6e87828801612b5f565b925050606085013567ffffffffffffffff811115612c8b57600080fd5b612c9787828801612b35565b91505092959194509250565b60008060408385031215612cb657600080fd5b6000612cc485828601612acc565b9250506020612cd585828601612ae1565b9150509250929050565b60008060408385031215612cf257600080fd5b6000612d0085828601612acc565b9250506020612d1185828601612b5f565b9150509250929050565b600060208284031215612d2d57600080fd5b6000612d3b84828501612af6565b91505092915050565b600060208284031215612d5657600080fd5b6000612d6484828501612b0b565b91505092915050565b600060208284031215612d7f57600080fd5b6000612d8d84828501612b20565b91505092915050565b600060208284031215612da857600080fd5b6000612db684828501612b5f565b91505092915050565b612dc8816138ec565b82525050565b612dd7816138fe565b82525050565b612de68161390a565b82525050565b612dfd612df88261390a565b613a65565b82525050565b6000612e0e826137ee565b612e188185613804565b9350612e28818560208601613986565b612e3181613b5c565b840191505092915050565b6000612e47826137f9565b612e518185613815565b9350612e61818560208601613986565b612e6a81613b5c565b840191505092915050565b6000612e80826137f9565b612e8a8185613826565b9350612e9a818560208601613986565b80840191505092915050565b6000612eb3601883613815565b9150612ebe82613b6d565b602082019050919050565b6000612ed6600e83613815565b9150612ee182613b96565b602082019050919050565b6000612ef9601f83613815565b9150612f0482613bbf565b602082019050919050565b6000612f1c601c83613826565b9150612f2782613be8565b601c82019050919050565b6000612f3f602b83613815565b9150612f4a82613c11565b604082019050919050565b6000612f62603283613815565b9150612f6d82613c60565b604082019050919050565b6000612f85602683613815565b9150612f9082613caf565b604082019050919050565b6000612fa8601c83613815565b9150612fb382613cfe565b602082019050919050565b6000612fcb602483613815565b9150612fd682613d27565b604082019050919050565b6000612fee601983613815565b9150612ff982613d76565b602082019050919050565b6000613011602283613815565b915061301c82613d9f565b604082019050919050565b6000613034602c83613815565b915061303f82613dee565b604082019050919050565b6000613057600e83613815565b915061306282613e3d565b602082019050919050565b600061307a603883613815565b915061308582613e66565b604082019050919050565b600061309d602a83613815565b91506130a882613eb5565b604082019050919050565b60006130c0602983613815565b91506130cb82613f04565b604082019050919050565b60006130e3602283613815565b91506130ee82613f53565b604082019050919050565b6000613106602083613815565b915061311182613fa2565b602082019050919050565b6000613129603183613815565b915061313482613fcb565b604082019050919050565b600061314c602c83613815565b91506131578261401a565b604082019050919050565b600061316f602083613815565b915061317a82614069565b602082019050919050565b6000613192602983613815565b915061319d82614092565b604082019050919050565b60006131b5602f83613815565b91506131c0826140e1565b604082019050919050565b60006131d8602183613815565b91506131e382614130565b604082019050919050565b60006131fb603183613815565b91506132068261417f565b604082019050919050565b600061321e602c83613815565b9150613229826141ce565b604082019050919050565b6000613241601283613815565b915061324c8261421d565b602082019050919050565b6000613264601883613815565b915061326f82614246565b602082019050919050565b61328381613960565b82525050565b6132928161396a565b82525050565b60006132a48285612e75565b91506132b08284612e75565b91508190509392505050565b60006132c782612f0f565b91506132d38284612dec565b60208201915081905092915050565b60006020820190506132f76000830184612dbf565b92915050565b60006080820190506133126000830187612dbf565b61331f6020830186612dbf565b61332c604083018561327a565b818103606083015261333e8184612e03565b905095945050505050565b600060208201905061335e6000830184612dce565b92915050565b60006020820190506133796000830184612ddd565b92915050565b60006060820190506133946000830186612ddd565b6133a16020830185612ddd565b6133ae6040830184613289565b949350505050565b60006080820190506133cb6000830187612ddd565b6133d86020830186613289565b6133e56040830185612ddd565b6133f26060830184612ddd565b95945050505050565b600060208201905081810360008301526134158184612e3c565b905092915050565b6000602082019050818103600083015261343681612ea6565b9050919050565b6000602082019050818103600083015261345681612ec9565b9050919050565b6000602082019050818103600083015261347681612eec565b9050919050565b6000602082019050818103600083015261349681612f32565b9050919050565b600060208201905081810360008301526134b681612f55565b9050919050565b600060208201905081810360008301526134d681612f78565b9050919050565b600060208201905081810360008301526134f681612f9b565b9050919050565b6000602082019050818103600083015261351681612fbe565b9050919050565b6000602082019050818103600083015261353681612fe1565b9050919050565b6000602082019050818103600083015261355681613004565b9050919050565b6000602082019050818103600083015261357681613027565b9050919050565b600060208201905081810360008301526135968161304a565b9050919050565b600060208201905081810360008301526135b68161306d565b9050919050565b600060208201905081810360008301526135d681613090565b9050919050565b600060208201905081810360008301526135f6816130b3565b9050919050565b60006020820190508181036000830152613616816130d6565b9050919050565b60006020820190508181036000830152613636816130f9565b9050919050565b600060208201905081810360008301526136568161311c565b9050919050565b600060208201905081810360008301526136768161313f565b9050919050565b6000602082019050818103600083015261369681613162565b9050919050565b600060208201905081810360008301526136b681613185565b9050919050565b600060208201905081810360008301526136d6816131a8565b9050919050565b600060208201905081810360008301526136f6816131cb565b9050919050565b60006020820190508181036000830152613716816131ee565b9050919050565b6000602082019050818103600083015261373681613211565b9050919050565b6000602082019050818103600083015261375681613234565b9050919050565b6000602082019050818103600083015261377681613257565b9050919050565b6000602082019050613792600083018461327a565b92915050565b60006137a26137b3565b90506137ae82826139eb565b919050565b6000604051905090565b600067ffffffffffffffff8211156137d8576137d7613b2d565b5b6137e182613b5c565b9050602081019050919050565b600081519050919050565b600081519050919050565b600082825260208201905092915050565b600082825260208201905092915050565b600081905092915050565b600061383c82613960565b915061384783613960565b9250827fffffffffffffffffffffffffffffffffffffffffffffffffffffffffffffffff0382111561387c5761387b613aa0565b5b828201905092915050565b600061389282613960565b915061389d83613960565b9250826138ad576138ac613acf565b5b828204905092915050565b60006138c382613960565b91506138ce83613960565b9250828210156138e1576138e0613aa0565b5b828203905092915050565b60006138f782613940565b9050919050565b60008115159050919050565b6000819050919050565b60007fffffffff0000000000000000000000000000000000000000000000000000000082169050919050565b600073ffffffffffffffffffffffffffffffffffffffff82169050919050565b6000819050919050565b600060ff82169050919050565b82818337600083830152505050565b60005b838110156139a4578082015181840152602081019050613989565b838111156139b3576000848401525b50505050565b600060028204905060018216806139d157607f821691505b602082108114156139e5576139e4613afe565b5b50919050565b6139f482613b5c565b810181811067ffffffffffffffff82111715613a1357613a12613b2d565b5b80604052505050565b6000613a2782613960565b91507fffffffffffffffffffffffffffffffffffffffffffffffffffffffffffffffff821415613a5a57613a59613aa0565b5b600182019050919050565b6000819050919050565b6000613a7a82613960565b9150613a8583613960565b925082613a9557613a94613acf565b5b828206905092915050565b7f4e487b7100000000000000000000000000000000000000000000000000000000600052601160045260246000fd5b7f4e487b7100000000000000000000000000000000000000000000000000000000600052601260045260246000fd5b7f4e487b7100000000000000000000000000000000000000000000000000000000600052602260045260246000fd5b7f4e487b7100000000000000000000000000000000000000000000000000000000600052604160045260246000fd5b6000601f19601f8301169050919050565b7f45434453413a20696e76616c6964207369676e61747572650000000000000000600082015250565b7f416c7265616479206d696e746564000000000000000000000000000000000000600082015250565b7f45434453413a20696e76616c6964207369676e6174757265206c656e67746800600082015250565b7f19457468657265756d205369676e6564204d6573736167653a0a333200000000600082015250565b7f455243373231456e756d657261626c653a206f776e657220696e646578206f7560008201527f74206f6620626f756e6473000000000000000000000000000000000000000000602082015250565b7f4552433732313a207472616e7366657220746f206e6f6e20455243373231526560008201527f63656976657220696d706c656d656e7465720000000000000000000000000000602082015250565b7f4f776e61626c653a206e6577206f776e657220697320746865207a65726f206160008201527f6464726573730000000000000000000000000000000000000000000000000000602082015250565b7f4552433732313a20746f6b656e20616c7265616479206d696e74656400000000600082015250565b7f4552433732313a207472616e7366657220746f20746865207a65726f2061646460008201527f7265737300000000000000000000000000000000000000000000000000000000602082015250565b7f4552433732313a20617070726f766520746f2063616c6c657200000000000000600082015250565b7f45434453413a20696e76616c6964207369676e6174757265202773272076616c60008201527f7565000000000000000000000000000000000000000000000000000000000000602082015250565b7f4552433732313a206f70657261746f7220717565727920666f72206e6f6e657860008201527f697374656e7420746f6b656e0000000000000000000000000000000000000000602082015250565b7f4e6f7420417574686f72697a6564000000000000000000000000000000000000600082015250565b7f4552433732313a20617070726f76652063616c6c6572206973206e6f74206f7760008201527f6e6572206e6f7220617070726f76656420666f7220616c6c0000000000000000602082015250565b7f4552433732313a2062616c616e636520717565727920666f7220746865207a6560008201527f726f206164647265737300000000000000000000000000000000000000000000602082015250565b7f4552433732313a206f776e657220717565727920666f72206e6f6e657869737460008201527f656e7420746f6b656e0000000000000000000000000000000000000000000000602082015250565b7f45434453413a20696e76616c6964207369676e6174757265202776272076616c60008201527f7565000000000000000000000000000000000000000000000000000000000000602082015250565b7f4552433732313a206d696e7420746f20746865207a65726f2061646472657373600082015250565b7f45524337323155524953746f726167653a2055524920717565727920666f722060008201527f6e6f6e6578697374656e7420746f6b656e000000000000000000000000000000602082015250565b7f4552433732313a20617070726f76656420717565727920666f72206e6f6e657860008201527f697374656e7420746f6b656e0000000000000000000000000000000000000000602082015250565b7f4f776e61626c653a2063616c6c6572206973206e6f7420746865206f776e6572600082015250565b7f4552433732313a207472616e73666572206f6620746f6b656e2074686174206960008201527f73206e6f74206f776e0000000000000000000000000000000000000000000000602082015250565b7f4552433732314d657461646174613a2055524920717565727920666f72206e6f60008201527f6e6578697374656e7420746f6b656e0000000000000000000000000000000000602082015250565b7f4552433732313a20617070726f76616c20746f2063757272656e74206f776e6560008201527f7200000000000000000000000000000000000000000000000000000000000000602082015250565b7f4552433732313a207472616e736665722063616c6c6572206973206e6f74206f60008201527f776e6572206e6f7220617070726f766564000000000000000000000000000000602082015250565b7f455243373231456e756d657261626c653a20676c6f62616c20696e646578206f60008201527f7574206f6620626f756e64730000000000000000000000000000000000000000602082015250565b7f4d617820537570706c7920526561636865640000000000000000000000000000600082015250565b7f696e76616c6964207369676e6174757265206c656e6774680000000000000000600082015250565b614278816138ec565b811461428357600080fd5b50565b61428f816138fe565b811461429a57600080fd5b50565b6142a68161390a565b81146142b157600080fd5b50565b6142bd81613914565b81146142c857600080fd5b50565b6142d481613960565b81146142df57600080fd5b5056fea2646970667358221220d90d578cb62d6cc6a1a00346cabd4b5f2e141ab6301f8880ef6d1b7bad936d5c64736f6c63430008040033",
  "linkReferences": {},
  "deployedLinkReferences": {}
}