{
  "_format": "hh-sol-artifact-1",
  "contractName": "Ballot",
  "sourceName": "contracts/Ballot.sol",
  "abi": [
    {
      "inputs": [
        {
          "internalType": "contract IERC721",
          "name": "votingTokenAddress",
          "type": "address"
        }
      ],
      "stateMutability": "nonpayable",
      "type": "constructor"
    },
    {
      "anonymous": false,
      "inputs": [
        {
          "indexed": true,
          "internalType": "address",
          "name": "previousOwner",
          "type": "address"
        },
        {
          "indexed": true,
          "internalType": "address",
          "name": "newOwner",
          "type": "address"
        }
      ],
      "name": "OwnershipTransferred",
      "type": "event"
    },
    {
      "inputs": [],
      "name": "finalize",
      "outputs": [],
      "stateMutability": "nonpayable",
      "type": "function"
    },
    {
      "inputs": [],
      "name": "open",
      "outputs": [],
      "stateMutability": "nonpayable",
      "type": "function"
    },
    {
      "inputs": [],
      "name": "owner",
      "outputs": [
        {
          "internalType": "address",
          "name": "",
          "type": "address"
        }
      ],
      "stateMutability": "view",
      "type": "function"
    },
    {
      "inputs": [],
      "name": "renounceOwnership",
      "outputs": [],
      "stateMutability": "nonpayable",
      "type": "function"
    },
    {
      "inputs": [],
      "name": "result",
      "outputs": [
        {
          "internalType": "uint256",
          "name": "candidateA",
          "type": "uint256"
        },
        {
          "internalType": "uint256",
          "name": "candidateB",
          "type": "uint256"
        }
      ],
      "stateMutability": "view",
      "type": "function"
    },
    {
      "inputs": [
        {
          "internalType": "address",
          "name": "newOwner",
          "type": "address"
        }
      ],
      "name": "transferOwnership",
      "outputs": [],
      "stateMutability": "nonpayable",
      "type": "function"
    },
    {
      "inputs": [
        {
          "internalType": "uint256",
          "name": "_chosen",
          "type": "uint256"
        }
      ],
      "name": "vote",
      "outputs": [],
      "stateMutability": "nonpayable",
      "type": "function"
    },
    {
      "inputs": [],
      "name": "votingTime",
      "outputs": [
        {
          "internalType": "bool",
          "name": "",
          "type": "bool"
        }
      ],
      "stateMutability": "view",
      "type": "function"
    }
  ],
  "bytecode": "0x608060405234801561001057600080fd5b5060405162000e3238038062000e3283398181016040528101906100349190610178565b61005061004561009760201b60201c565b61009f60201b60201c565b80600160006101000a81548173ffffffffffffffffffffffffffffffffffffffff021916908373ffffffffffffffffffffffffffffffffffffffff160217905550506101fc565b600033905090565b60008060009054906101000a900473ffffffffffffffffffffffffffffffffffffffff169050816000806101000a81548173ffffffffffffffffffffffffffffffffffffffff021916908373ffffffffffffffffffffffffffffffffffffffff1602179055508173ffffffffffffffffffffffffffffffffffffffff168173ffffffffffffffffffffffffffffffffffffffff167f8be0079c531659141344cd1fd0a4f28419497f9722a3daafe3b4186f6b6457e060405160405180910390a35050565b600081519050610172816101e5565b92915050565b60006020828403121561018a57600080fd5b600061019884828501610163565b91505092915050565b60006101ac826101c5565b9050919050565b60006101be826101a1565b9050919050565b600073ffffffffffffffffffffffffffffffffffffffff82169050919050565b6101ee816101b3565b81146101f957600080fd5b50565b610c26806200020c6000396000f3fe608060405234801561001057600080fd5b50600436106100885760003560e01c8063715018a61161005b578063715018a6146100f05780638da5cb5b146100fa578063f2fde38b14610118578063fcfff16f1461013457610088565b80630121b93f1461008d5780631cbe482d146100a95780634bb278f3146100c757806365372147146100d1575b600080fd5b6100a760048036038101906100a291906107d1565b61013e565b005b6100b161034e565b6040516100be919061091a565b60405180910390f35b6100cf610361565b005b6100d9610449565b6040516100e79291906109d5565b60405180910390f35b6100f861045b565b005b6101026104e3565b60405161010f91906108ff565b60405180910390f35b610132600480360381019061012d91906107a8565b61050c565b005b61013c610604565b005b600460009054906101000a900460ff1661018d576040517f08c379a000000000000000000000000000000000000000000000000000000000815260040161018490610935565b60405180910390fd5b60018060009054906101000a900473ffffffffffffffffffffffffffffffffffffffff1673ffffffffffffffffffffffffffffffffffffffff166370a08231336040518263ffffffff1660e01b81526004016101e991906108ff565b60206040518083038186803b15801561020157600080fd5b505afa158015610215573d6000803e3d6000fd5b505050506040513d601f19601f8201168201806040525081019061023991906107fa565b14610279576040517f08c379a000000000000000000000000000000000000000000000000000000000815260040161027090610975565b60405180910390fd5b600260003373ffffffffffffffffffffffffffffffffffffffff1673ffffffffffffffffffffffffffffffffffffffff16815260200190815260200160002060009054906101000a900460ff1615610306576040517f08c379a00000000000000000000000000000000000000000000000000000000081526004016102fd90610995565b60405180910390fd5b600081141561032f576005600001600081548092919061032590610a57565b919050555061034b565b6005600101600081548092919061034590610a57565b91905055505b50565b600460009054906101000a900460ff1681565b61036961069d565b73ffffffffffffffffffffffffffffffffffffffff166103876104e3565b73ffffffffffffffffffffffffffffffffffffffff16146103dd576040517f08c379a00000000000000000000000000000000000000000000000000000000081526004016103d4906109b5565b60405180910390fd5b600460009054906101000a900460ff1661042c576040517f08c379a000000000000000000000000000000000000000000000000000000000815260040161042390610935565b60405180910390fd5b6000600460006101000a81548160ff021916908315150217905550565b60058060000154908060010154905082565b61046361069d565b73ffffffffffffffffffffffffffffffffffffffff166104816104e3565b73ffffffffffffffffffffffffffffffffffffffff16146104d7576040517f08c379a00000000000000000000000000000000000000000000000000000000081526004016104ce906109b5565b60405180910390fd5b6104e160006106a5565b565b60008060009054906101000a900473ffffffffffffffffffffffffffffffffffffffff16905090565b61051461069d565b73ffffffffffffffffffffffffffffffffffffffff166105326104e3565b73ffffffffffffffffffffffffffffffffffffffff1614610588576040517f08c379a000000000000000000000000000000000000000000000000000000000815260040161057f906109b5565b60405180910390fd5b600073ffffffffffffffffffffffffffffffffffffffff168173ffffffffffffffffffffffffffffffffffffffff1614156105f8576040517f08c379a00000000000000000000000000000000000000000000000000000000081526004016105ef90610955565b60405180910390fd5b610601816106a5565b50565b61060c61069d565b73ffffffffffffffffffffffffffffffffffffffff1661062a6104e3565b73ffffffffffffffffffffffffffffffffffffffff1614610680576040517f08c379a0000000000000000000000000000000000000000000000000000000008152600401610677906109b5565b60405180910390fd5b6001600460006101000a81548160ff021916908315150217905550565b600033905090565b60008060009054906101000a900473ffffffffffffffffffffffffffffffffffffffff169050816000806101000a81548173ffffffffffffffffffffffffffffffffffffffff021916908373ffffffffffffffffffffffffffffffffffffffff1602179055508173ffffffffffffffffffffffffffffffffffffffff168173ffffffffffffffffffffffffffffffffffffffff167f8be0079c531659141344cd1fd0a4f28419497f9722a3daafe3b4186f6b6457e060405160405180910390a35050565b60008135905061077881610bc2565b92915050565b60008135905061078d81610bd9565b92915050565b6000815190506107a281610bd9565b92915050565b6000602082840312156107ba57600080fd5b60006107c884828501610769565b91505092915050565b6000602082840312156107e357600080fd5b60006107f18482850161077e565b91505092915050565b60006020828403121561080c57600080fd5b600061081a84828501610793565b91505092915050565b61082c81610a0f565b82525050565b61083b81610a21565b82525050565b600061084e6010836109fe565b915061085982610acf565b602082019050919050565b60006108716026836109fe565b915061087c82610af8565b604082019050919050565b60006108946019836109fe565b915061089f82610b47565b602082019050919050565b60006108b7600d836109fe565b91506108c282610b70565b602082019050919050565b60006108da6020836109fe565b91506108e582610b99565b602082019050919050565b6108f981610a4d565b82525050565b60006020820190506109146000830184610823565b92915050565b600060208201905061092f6000830184610832565b92915050565b6000602082019050818103600083015261094e81610841565b9050919050565b6000602082019050818103600083015261096e81610864565b9050919050565b6000602082019050818103600083015261098e81610887565b9050919050565b600060208201905081810360008301526109ae816108aa565b9050919050565b600060208201905081810360008301526109ce816108cd565b9050919050565b60006040820190506109ea60008301856108f0565b6109f760208301846108f0565b9392505050565b600082825260208201905092915050565b6000610a1a82610a2d565b9050919050565b60008115159050919050565b600073ffffffffffffffffffffffffffffffffffffffff82169050919050565b6000819050919050565b6000610a6282610a4d565b91507fffffffffffffffffffffffffffffffffffffffffffffffffffffffffffffffff821415610a9557610a94610aa0565b5b600182019050919050565b7f4e487b7100000000000000000000000000000000000000000000000000000000600052601160045260246000fd5b7f42616c6c6f7420697320636c6f73656400000000000000000000000000000000600082015250565b7f4f776e61626c653a206e6577206f776e657220697320746865207a65726f206160008201527f6464726573730000000000000000000000000000000000000000000000000000602082015250565b7f566f746572204e465420646f6573206e6f742065786974737400000000000000600082015250565b7f416c726561647920766f74656400000000000000000000000000000000000000600082015250565b7f4f776e61626c653a2063616c6c6572206973206e6f7420746865206f776e6572600082015250565b610bcb81610a0f565b8114610bd657600080fd5b50565b610be281610a4d565b8114610bed57600080fd5b5056fea2646970667358221220ddd3f1d62ae3f40acfa401f33780f5356a077e858315fe27de0714abf2c1efcc64736f6c63430008040033",
  "linkReferences": {},
  "deployedLinkReferences": {}
}