{
  "_format": "hh-sol-artifact-1",
  "contractName": "Ballot",
  "sourceName": "contracts/Ballot.sol",
  "abi": [
    {
      "inputs": [
        {
          "internalType": "address",
          "name": "votingTokenAddress",
          "type": "address"
        }
      ],
      "stateMutability": "nonpayable",
      "type": "constructor"
    },
    {
      "inputs": [
        {
          "internalType": "uint256",
          "name": "_chosen",
          "type": "uint256"
        }
      ],
      "name": "vote",
      "outputs": [],
      "stateMutability": "nonpayable",
      "type": "function"
    }
  ],
  "bytecode": "0x608060405234801561001057600080fd5b506040516105aa3803806105aa8339818101604052810190610032919061008d565b806000806101000a81548173ffffffffffffffffffffffffffffffffffffffff021916908373ffffffffffffffffffffffffffffffffffffffff160217905550506100ff565b600081519050610087816100e8565b92915050565b60006020828403121561009f57600080fd5b60006100ad84828501610078565b91505092915050565b60006100c1826100c8565b9050919050565b600073ffffffffffffffffffffffffffffffffffffffff82169050919050565b6100f1816100b6565b81146100fc57600080fd5b50565b61049c8061010e6000396000f3fe608060405234801561001057600080fd5b506004361061002b5760003560e01c80630121b93f14610030575b600080fd5b61004a60048036038101906100459190610236565b61004c565b005b600160008054906101000a900473ffffffffffffffffffffffffffffffffffffffff1673ffffffffffffffffffffffffffffffffffffffff166370a08231336040518263ffffffff1660e01b81526004016100a791906102dd565b60206040518083038186803b1580156100bf57600080fd5b505afa1580156100d3573d6000803e3d6000fd5b505050506040513d601f19601f820116820180604052508101906100f7919061025f565b14610137576040517f08c379a000000000000000000000000000000000000000000000000000000000815260040161012e906102f8565b60405180910390fd5b600160003373ffffffffffffffffffffffffffffffffffffffff1673ffffffffffffffffffffffffffffffffffffffff16815260200190815260200160002060009054906101000a900460ff16156101c4576040517f08c379a00000000000000000000000000000000000000000000000000000000081526004016101bb90610318565b60405180910390fd5b60008114156101ed57600260000160008154809291906101e390610385565b9190505550610209565b6002600101600081548092919061020390610385565b91905055505b50565b60008135905061021b8161044f565b92915050565b6000815190506102308161044f565b92915050565b60006020828403121561024857600080fd5b60006102568482850161020c565b91505092915050565b60006020828403121561027157600080fd5b600061027f84828501610221565b91505092915050565b61029181610349565b82525050565b60006102a4601983610338565b91506102af826103fd565b602082019050919050565b60006102c7600d83610338565b91506102d282610426565b602082019050919050565b60006020820190506102f26000830184610288565b92915050565b6000602082019050818103600083015261031181610297565b9050919050565b60006020820190508181036000830152610331816102ba565b9050919050565b600082825260208201905092915050565b60006103548261035b565b9050919050565b600073ffffffffffffffffffffffffffffffffffffffff82169050919050565b6000819050919050565b60006103908261037b565b91507fffffffffffffffffffffffffffffffffffffffffffffffffffffffffffffffff8214156103c3576103c26103ce565b5b600182019050919050565b7f4e487b7100000000000000000000000000000000000000000000000000000000600052601160045260246000fd5b7f566f746572204e465420646f6573206e6f742065786974737400000000000000600082015250565b7f416c726561647920766f74656400000000000000000000000000000000000000600082015250565b6104588161037b565b811461046357600080fd5b5056fea26469706673582212206363debf5d7954aefa714681ff0f25eb92e6ea7c7b8537b398a06f0957eb77d264736f6c63430008040033",
  "linkReferences": {},
  "deployedLinkReferences": {}
}